{
  "_format": "hh-sol-artifact-1",
  "contractName": "Voting",
  "sourceName": "contracts/Voting.sol",
  "abi": [
    {
      "inputs": [
        {
          "internalType": "string[]",
          "name": "candidateNames",
          "type": "string[]"
        },
        {
          "internalType": "address",
          "name": "_trustedForwarder",
          "type": "address"
        },
        {
          "internalType": "address",
          "name": "_owner",
          "type": "address"
        }
      ],
      "stateMutability": "nonpayable",
      "type": "constructor"
    },
    {
      "anonymous": false,
      "inputs": [
        {
          "indexed": false,
          "internalType": "address",
          "name": "voter",
          "type": "address"
        },
        {
          "indexed": false,
          "internalType": "uint256",
          "name": "candidateIndex",
          "type": "uint256"
        }
      ],
      "name": "Voted",
      "type": "event"
    },
    {
      "inputs": [
        {
          "internalType": "uint256",
          "name": "",
          "type": "uint256"
        }
      ],
      "name": "candidates",
      "outputs": [
        {
          "internalType": "string",
          "name": "name",
          "type": "string"
        },
        {
          "internalType": "uint256",
          "name": "voteCount",
          "type": "uint256"
        }
      ],
      "stateMutability": "view",
      "type": "function"
    },
    {
      "inputs": [],
      "name": "getCandidates",
      "outputs": [
        {
          "components": [
            {
              "internalType": "string",
              "name": "name",
              "type": "string"
            },
            {
              "internalType": "uint256",
              "name": "voteCount",
              "type": "uint256"
            }
          ],
          "internalType": "struct Voting.Candidate[]",
          "name": "",
          "type": "tuple[]"
        }
      ],
      "stateMutability": "view",
      "type": "function"
    },
    {
      "inputs": [
        {
          "internalType": "address",
          "name": "",
          "type": "address"
        }
      ],
      "name": "hasVoted",
      "outputs": [
        {
          "internalType": "bool",
          "name": "",
          "type": "bool"
        }
      ],
      "stateMutability": "view",
      "type": "function"
    },
    {
      "inputs": [
        {
          "internalType": "address",
          "name": "forwarder",
          "type": "address"
        }
      ],
      "name": "isTrustedForwarder",
      "outputs": [
        {
          "internalType": "bool",
          "name": "",
          "type": "bool"
        }
      ],
      "stateMutability": "view",
      "type": "function"
    },
    {
      "inputs": [],
      "name": "owner",
      "outputs": [
        {
          "internalType": "address",
          "name": "",
          "type": "address"
        }
      ],
      "stateMutability": "view",
      "type": "function"
    },
    {
      "inputs": [],
      "name": "trustedForwarder",
      "outputs": [
        {
          "internalType": "address",
          "name": "",
          "type": "address"
        }
      ],
      "stateMutability": "view",
      "type": "function"
    },
    {
      "inputs": [],
      "name": "versionRecipient",
      "outputs": [
        {
          "internalType": "string",
          "name": "",
          "type": "string"
        }
      ],
      "stateMutability": "view",
      "type": "function"
    },
    {
      "inputs": [
        {
          "internalType": "uint256",
          "name": "candidateIndex",
          "type": "uint256"
        }
      ],
      "name": "vote",
      "outputs": [],
      "stateMutability": "nonpayable",
      "type": "function"
    }
  ],
  "bytecode": "0x60806040526040518060400160405280600581526020017f312e302e300000000000000000000000000000000000000000000000000000008152506002908051906020019062000051929190620001f4565b503480156200005f57600080fd5b5060405162001317380380620013178339818101604052810190620000859190620003bf565b80600160006101000a81548173ffffffffffffffffffffffffffffffffffffffff021916908373ffffffffffffffffffffffffffffffffffffffff160217905550620000d782620001b160201b60201c565b60005b8351811015620001a757600360405180604001604052808684815181106200012b577f4e487b7100000000000000000000000000000000000000000000000000000000600052603260045260246000fd5b6020026020010151815260200160008152509080600181540180825580915050600190039060005260206000209060020201600090919091909150600082015181600001908051906020019062000184929190620001f4565b5060208201518160010155505080806200019e906200056e565b915050620000da565b5050505062000663565b806000806101000a81548173ffffffffffffffffffffffffffffffffffffffff021916908373ffffffffffffffffffffffffffffffffffffffff16021790555050565b828054620002029062000538565b90600052602060002090601f01602090048101928262000226576000855562000272565b82601f106200024157805160ff191683800117855562000272565b8280016001018555821562000272579182015b828111156200027157825182559160200191906001019062000254565b5b50905062000281919062000285565b5090565b5b80821115620002a057600081600090555060010162000286565b5090565b6000620002bb620002b58462000462565b6200042e565b9050808382526020820190508260005b85811015620002ff5781518501620002e4888262000392565b845260208401935060208301925050600181019050620002cb565b5050509392505050565b6000620003206200031a8462000491565b6200042e565b9050828152602081018484840111156200033957600080fd5b6200034684828562000502565b509392505050565b6000815190506200035f8162000649565b92915050565b600082601f8301126200037757600080fd5b815162000389848260208601620002a4565b91505092915050565b600082601f830112620003a457600080fd5b8151620003b684826020860162000309565b91505092915050565b600080600060608486031215620003d557600080fd5b600084015167ffffffffffffffff811115620003f057600080fd5b620003fe8682870162000365565b935050602062000411868287016200034e565b925050604062000424868287016200034e565b9150509250925092565b6000604051905081810181811067ffffffffffffffff821117156200045857620004576200061a565b5b8060405250919050565b600067ffffffffffffffff82111562000480576200047f6200061a565b5b602082029050602081019050919050565b600067ffffffffffffffff821115620004af57620004ae6200061a565b5b601f19601f8301169050602081019050919050565b6000620004d182620004d8565b9050919050565b600073ffffffffffffffffffffffffffffffffffffffff82169050919050565b6000819050919050565b60005b838110156200052257808201518184015260208101905062000505565b8381111562000532576000848401525b50505050565b600060028204905060018216806200055157607f821691505b60208210811415620005685762000567620005eb565b5b50919050565b60006200057b82620004f8565b91507fffffffffffffffffffffffffffffffffffffffffffffffffffffffffffffffff821415620005b157620005b0620005bc565b5b600182019050919050565b7f4e487b7100000000000000000000000000000000000000000000000000000000600052601160045260246000fd5b7f4e487b7100000000000000000000000000000000000000000000000000000000600052602260045260246000fd5b7f4e487b7100000000000000000000000000000000000000000000000000000000600052604160045260246000fd5b6200065481620004c4565b81146200066057600080fd5b50565b610ca480620006736000396000f3fe608060405234801561001057600080fd5b50600436106100885760003560e01c8063486ff0cd1161005b578063486ff0cd14610128578063572b6c05146101465780637da0a877146101765780638da5cb5b1461019457610088565b80630121b93f1461008d57806306a49fce146100a957806309eef43e146100c75780633477ee2e146100f7575b600080fd5b6100a760048036038101906100a29190610738565b6101b2565b005b6100b1610392565b6040516100be9190610999565b60405180910390f35b6100e160048036038101906100dc919061070f565b61048d565b6040516100ee91906109bb565b60405180910390f35b610111600480360381019061010c9190610738565b6104ad565b60405161011f9291906109f8565b60405180910390f35b610130610569565b60405161013d91906109d6565b60405180910390f35b610160600480360381019061015b919061070f565b6105f7565b60405161016d91906109bb565b60405180910390f35b61017e610650565b60405161018b9190610955565b60405180910390f35b61019c610679565b6040516101a99190610955565b60405180910390f35b600460006101be61069f565b73ffffffffffffffffffffffffffffffffffffffff1673ffffffffffffffffffffffffffffffffffffffff16815260200190815260200160002060009054906101000a900460ff1615610246576040517f08c379a000000000000000000000000000000000000000000000000000000000815260040161023d90610a48565b60405180910390fd5b600380549050811061028d576040517f08c379a000000000000000000000000000000000000000000000000000000000815260040161028490610a28565b60405180910390fd5b6001600382815481106102c9577f4e487b7100000000000000000000000000000000000000000000000000000000600052603260045260246000fd5b906000526020600020906002020160010160008282546102e99190610ace565b925050819055506001600460006102fe61069f565b73ffffffffffffffffffffffffffffffffffffffff1673ffffffffffffffffffffffffffffffffffffffff16815260200190815260200160002060006101000a81548160ff0219169083151502179055507f4d99b957a2bc29a30ebd96a7be8e68fe50a3c701db28a91436490b7d53870ca461037861069f565b82604051610387929190610970565b60405180910390a150565b60606003805480602002602001604051908101604052809291908181526020016000905b8282101561048457838290600052602060002090600202016040518060400160405290816000820180546103e990610b9f565b80601f016020809104026020016040519081016040528092919081815260200182805461041590610b9f565b80156104625780601f1061043757610100808354040283529160200191610462565b820191906000526020600020905b81548152906001019060200180831161044557829003601f168201915b50505050508152602001600182015481525050815260200190600101906103b6565b50505050905090565b60046020528060005260406000206000915054906101000a900460ff1681565b600381815481106104bd57600080fd5b90600052602060002090600202016000915090508060000180546104e090610b9f565b80601f016020809104026020016040519081016040528092919081815260200182805461050c90610b9f565b80156105595780601f1061052e57610100808354040283529160200191610559565b820191906000526020600020905b81548152906001019060200180831161053c57829003601f168201915b5050505050908060010154905082565b6002805461057690610b9f565b80601f01602080910402602001604051908101604052809291908181526020018280546105a290610b9f565b80156105ef5780601f106105c4576101008083540402835291602001916105ef565b820191906000526020600020905b8154815290600101906020018083116105d257829003601f168201915b505050505081565b60008060009054906101000a900473ffffffffffffffffffffffffffffffffffffffff1673ffffffffffffffffffffffffffffffffffffffff168273ffffffffffffffffffffffffffffffffffffffff16149050919050565b60008060009054906101000a900473ffffffffffffffffffffffffffffffffffffffff16905090565b600160009054906101000a900473ffffffffffffffffffffffffffffffffffffffff1681565b60006106a96106ae565b905090565b600060146000369050101580156106ca57506106c9336105f7565b5b156106de57601436033560601c90506106e2565b3390505b90565b6000813590506106f481610c40565b92915050565b60008135905061070981610c57565b92915050565b60006020828403121561072157600080fd5b600061072f848285016106e5565b91505092915050565b60006020828403121561074a57600080fd5b6000610758848285016106fa565b91505092915050565b600061076d83836108fa565b905092915050565b61077e81610b24565b82525050565b600061078f82610a78565b6107998185610a9b565b9350836020820285016107ab85610a68565b8060005b858110156107e757848403895281516107c88582610761565b94506107d383610a8e565b925060208a019950506001810190506107af565b50829750879550505050505092915050565b61080281610b36565b82525050565b600061081382610a83565b61081d8185610aac565b935061082d818560208601610b6c565b61083681610c2f565b840191505092915050565b600061084c82610a83565b6108568185610abd565b9350610866818560208601610b6c565b61086f81610c2f565b840191505092915050565b6000610887601883610abd565b91507f496e76616c69642063616e64696461746520696e6465782e00000000000000006000830152602082019050919050565b60006108c7600e83610abd565b91507f416c726561647920766f7465642e0000000000000000000000000000000000006000830152602082019050919050565b600060408301600083015184820360008601526109178282610808565b915050602083015161092c6020860182610937565b508091505092915050565b61094081610b62565b82525050565b61094f81610b62565b82525050565b600060208201905061096a6000830184610775565b92915050565b60006040820190506109856000830185610775565b6109926020830184610946565b9392505050565b600060208201905081810360008301526109b38184610784565b905092915050565b60006020820190506109d060008301846107f9565b92915050565b600060208201905081810360008301526109f08184610841565b905092915050565b60006040820190508181036000830152610a128185610841565b9050610a216020830184610946565b9392505050565b60006020820190508181036000830152610a418161087a565b9050919050565b60006020820190508181036000830152610a61816108ba565b9050919050565b6000819050602082019050919050565b600081519050919050565b600081519050919050565b6000602082019050919050565b600082825260208201905092915050565b600082825260208201905092915050565b600082825260208201905092915050565b6000610ad982610b62565b9150610ae483610b62565b9250827fffffffffffffffffffffffffffffffffffffffffffffffffffffffffffffffff03821115610b1957610b18610bd1565b5b828201905092915050565b6000610b2f82610b42565b9050919050565b60008115159050919050565b600073ffffffffffffffffffffffffffffffffffffffff82169050919050565b6000819050919050565b60005b83811015610b8a578082015181840152602081019050610b6f565b83811115610b99576000848401525b50505050565b60006002820490506001821680610bb757607f821691505b60208210811415610bcb57610bca610c00565b5b50919050565b7f4e487b7100000000000000000000000000000000000000000000000000000000600052601160045260246000fd5b7f4e487b7100000000000000000000000000000000000000000000000000000000600052602260045260246000fd5b6000601f19601f8301169050919050565b610c4981610b24565b8114610c5457600080fd5b50565b610c6081610b62565b8114610c6b57600080fd5b5056fea2646970667358221220bc3e9f937cfec373dc686c9cd5a742be6afe3ab28f5e4b14ab461d338ba7f36964736f6c63430008000033",
  "linkReferences": {},
  "deployedLinkReferences": {}
}