{
  "_format": "hh-sol-artifact-1",
  "contractName": "YallaVote",
  "sourceName": "contracts/YallaVote.sol",
  "abi": [
    {
      "inputs": [
        {
          "internalType": "address",
          "name": "initialOwner",
          "type": "address"
        }
      ],
      "stateMutability": "nonpayable",
      "type": "constructor"
    },
    {
      "inputs": [],
      "name": "ERC721EnumerableForbiddenBatchMint",
      "type": "error"
    },
    {
      "inputs": [
        {
          "internalType": "address",
          "name": "sender",
          "type": "address"
        },
        {
          "internalType": "uint256",
          "name": "tokenId",
          "type": "uint256"
        },
        {
          "internalType": "address",
          "name": "owner",
          "type": "address"
        }
      ],
      "name": "ERC721IncorrectOwner",
      "type": "error"
    },
    {
      "inputs": [
        {
          "internalType": "address",
          "name": "operator",
          "type": "address"
        },
        {
          "internalType": "uint256",
          "name": "tokenId",
          "type": "uint256"
        }
      ],
      "name": "ERC721InsufficientApproval",
      "type": "error"
    },
    {
      "inputs": [
        {
          "internalType": "address",
          "name": "approver",
          "type": "address"
        }
      ],
      "name": "ERC721InvalidApprover",
      "type": "error"
    },
    {
      "inputs": [
        {
          "internalType": "address",
          "name": "operator",
          "type": "address"
        }
      ],
      "name": "ERC721InvalidOperator",
      "type": "error"
    },
    {
      "inputs": [
        {
          "internalType": "address",
          "name": "owner",
          "type": "address"
        }
      ],
      "name": "ERC721InvalidOwner",
      "type": "error"
    },
    {
      "inputs": [
        {
          "internalType": "address",
          "name": "receiver",
          "type": "address"
        }
      ],
      "name": "ERC721InvalidReceiver",
      "type": "error"
    },
    {
      "inputs": [
        {
          "internalType": "address",
          "name": "sender",
          "type": "address"
        }
      ],
      "name": "ERC721InvalidSender",
      "type": "error"
    },
    {
      "inputs": [
        {
          "internalType": "uint256",
          "name": "tokenId",
          "type": "uint256"
        }
      ],
      "name": "ERC721NonexistentToken",
      "type": "error"
    },
    {
      "inputs": [
        {
          "internalType": "address",
          "name": "owner",
          "type": "address"
        },
        {
          "internalType": "uint256",
          "name": "index",
          "type": "uint256"
        }
      ],
      "name": "ERC721OutOfBoundsIndex",
      "type": "error"
    },
    {
      "inputs": [
        {
          "internalType": "address",
          "name": "owner",
          "type": "address"
        }
      ],
      "name": "OwnableInvalidOwner",
      "type": "error"
    },
    {
      "inputs": [
        {
          "internalType": "address",
          "name": "account",
          "type": "address"
        }
      ],
      "name": "OwnableUnauthorizedAccount",
      "type": "error"
    },
    {
      "anonymous": false,
      "inputs": [
        {
          "indexed": true,
          "internalType": "address",
          "name": "owner",
          "type": "address"
        },
        {
          "indexed": true,
          "internalType": "address",
          "name": "approved",
          "type": "address"
        },
        {
          "indexed": true,
          "internalType": "uint256",
          "name": "tokenId",
          "type": "uint256"
        }
      ],
      "name": "Approval",
      "type": "event"
    },
    {
      "anonymous": false,
      "inputs": [
        {
          "indexed": true,
          "internalType": "address",
          "name": "owner",
          "type": "address"
        },
        {
          "indexed": true,
          "internalType": "address",
          "name": "operator",
          "type": "address"
        },
        {
          "indexed": false,
          "internalType": "bool",
          "name": "approved",
          "type": "bool"
        }
      ],
      "name": "ApprovalForAll",
      "type": "event"
    },
    {
      "anonymous": false,
      "inputs": [
        {
          "indexed": false,
          "internalType": "uint256",
          "name": "_fromTokenId",
          "type": "uint256"
        },
        {
          "indexed": false,
          "internalType": "uint256",
          "name": "_toTokenId",
          "type": "uint256"
        }
      ],
      "name": "BatchMetadataUpdate",
      "type": "event"
    },
    {
      "anonymous": false,
      "inputs": [
        {
          "indexed": false,
          "internalType": "uint256",
          "name": "_tokenId",
          "type": "uint256"
        }
      ],
      "name": "MetadataUpdate",
      "type": "event"
    },
    {
      "anonymous": false,
      "inputs": [
        {
          "indexed": true,
          "internalType": "address",
          "name": "previousOwner",
          "type": "address"
        },
        {
          "indexed": true,
          "internalType": "address",
          "name": "newOwner",
          "type": "address"
        }
      ],
      "name": "OwnershipTransferred",
      "type": "event"
    },
    {
      "anonymous": false,
      "inputs": [
        {
          "indexed": true,
          "internalType": "address",
          "name": "from",
          "type": "address"
        },
        {
          "indexed": true,
          "internalType": "address",
          "name": "to",
          "type": "address"
        },
        {
          "indexed": true,
          "internalType": "uint256",
          "name": "tokenId",
          "type": "uint256"
        }
      ],
      "name": "Transfer",
      "type": "event"
    },
    {
      "inputs": [],
      "name": "MINT_PRICE",
      "outputs": [
        {
          "internalType": "uint256",
          "name": "",
          "type": "uint256"
        }
      ],
      "stateMutability": "view",
      "type": "function"
    },
    {
      "inputs": [
        {
          "internalType": "address",
          "name": "to",
          "type": "address"
        },
        {
          "internalType": "uint256",
          "name": "tokenId",
          "type": "uint256"
        }
      ],
      "name": "approve",
      "outputs": [],
      "stateMutability": "nonpayable",
      "type": "function"
    },
    {
      "inputs": [
        {
          "internalType": "address",
          "name": "owner",
          "type": "address"
        }
      ],
      "name": "balanceOf",
      "outputs": [
        {
          "internalType": "uint256",
          "name": "",
          "type": "uint256"
        }
      ],
      "stateMutability": "view",
      "type": "function"
    },
    {
      "inputs": [
        {
          "internalType": "uint256",
          "name": "tokenId",
          "type": "uint256"
        }
      ],
      "name": "getApproved",
      "outputs": [
        {
          "internalType": "address",
          "name": "",
          "type": "address"
        }
      ],
      "stateMutability": "view",
      "type": "function"
    },
    {
      "inputs": [
        {
          "internalType": "address",
          "name": "owner",
          "type": "address"
        },
        {
          "internalType": "address",
          "name": "operator",
          "type": "address"
        }
      ],
      "name": "isApprovedForAll",
      "outputs": [
        {
          "internalType": "bool",
          "name": "",
          "type": "bool"
        }
      ],
      "stateMutability": "view",
      "type": "function"
    },
    {
      "inputs": [
        {
          "internalType": "address",
          "name": "to",
          "type": "address"
        },
        {
          "internalType": "string",
          "name": "uri",
          "type": "string"
        }
      ],
      "name": "mint",
      "outputs": [],
      "stateMutability": "nonpayable",
      "type": "function"
    },
    {
      "inputs": [],
      "name": "name",
      "outputs": [
        {
          "internalType": "string",
          "name": "",
          "type": "string"
        }
      ],
      "stateMutability": "view",
      "type": "function"
    },
    {
      "inputs": [],
      "name": "owner",
      "outputs": [
        {
          "internalType": "address",
          "name": "",
          "type": "address"
        }
      ],
      "stateMutability": "view",
      "type": "function"
    },
    {
      "inputs": [
        {
          "internalType": "uint256",
          "name": "tokenId",
          "type": "uint256"
        }
      ],
      "name": "ownerOf",
      "outputs": [
        {
          "internalType": "address",
          "name": "",
          "type": "address"
        }
      ],
      "stateMutability": "view",
      "type": "function"
    },
    {
      "inputs": [],
      "name": "renounceOwnership",
      "outputs": [],
      "stateMutability": "nonpayable",
      "type": "function"
    },
    {
      "inputs": [
        {
          "internalType": "address",
          "name": "from",
          "type": "address"
        },
        {
          "internalType": "address",
          "name": "to",
          "type": "address"
        },
        {
          "internalType": "uint256",
          "name": "tokenId",
          "type": "uint256"
        }
      ],
      "name": "safeTransferFrom",
      "outputs": [],
      "stateMutability": "nonpayable",
      "type": "function"
    },
    {
      "inputs": [
        {
          "internalType": "address",
          "name": "from",
          "type": "address"
        },
        {
          "internalType": "address",
          "name": "to",
          "type": "address"
        },
        {
          "internalType": "uint256",
          "name": "tokenId",
          "type": "uint256"
        },
        {
          "internalType": "bytes",
          "name": "data",
          "type": "bytes"
        }
      ],
      "name": "safeTransferFrom",
      "outputs": [],
      "stateMutability": "nonpayable",
      "type": "function"
    },
    {
      "inputs": [
        {
          "internalType": "address",
          "name": "operator",
          "type": "address"
        },
        {
          "internalType": "bool",
          "name": "approved",
          "type": "bool"
        }
      ],
      "name": "setApprovalForAll",
      "outputs": [],
      "stateMutability": "nonpayable",
      "type": "function"
    },
    {
      "inputs": [
        {
          "internalType": "bytes4",
          "name": "interfaceId",
          "type": "bytes4"
        }
      ],
      "name": "supportsInterface",
      "outputs": [
        {
          "internalType": "bool",
          "name": "",
          "type": "bool"
        }
      ],
      "stateMutability": "view",
      "type": "function"
    },
    {
      "inputs": [],
      "name": "symbol",
      "outputs": [
        {
          "internalType": "string",
          "name": "",
          "type": "string"
        }
      ],
      "stateMutability": "view",
      "type": "function"
    },
    {
      "inputs": [
        {
          "internalType": "uint256",
          "name": "index",
          "type": "uint256"
        }
      ],
      "name": "tokenByIndex",
      "outputs": [
        {
          "internalType": "uint256",
          "name": "",
          "type": "uint256"
        }
      ],
      "stateMutability": "view",
      "type": "function"
    },
    {
      "inputs": [
        {
          "internalType": "address",
          "name": "owner",
          "type": "address"
        },
        {
          "internalType": "uint256",
          "name": "index",
          "type": "uint256"
        }
      ],
      "name": "tokenOfOwnerByIndex",
      "outputs": [
        {
          "internalType": "uint256",
          "name": "",
          "type": "uint256"
        }
      ],
      "stateMutability": "view",
      "type": "function"
    },
    {
      "inputs": [
        {
          "internalType": "uint256",
          "name": "tokenId",
          "type": "uint256"
        }
      ],
      "name": "tokenURI",
      "outputs": [
        {
          "internalType": "string",
          "name": "",
          "type": "string"
        }
      ],
      "stateMutability": "view",
      "type": "function"
    },
    {
      "inputs": [],
      "name": "totalSupply",
      "outputs": [
        {
          "internalType": "uint256",
          "name": "",
          "type": "uint256"
        }
      ],
      "stateMutability": "view",
      "type": "function"
    },
    {
      "inputs": [
        {
          "internalType": "address",
          "name": "from",
          "type": "address"
        },
        {
          "internalType": "address",
          "name": "to",
          "type": "address"
        },
        {
          "internalType": "uint256",
          "name": "tokenId",
          "type": "uint256"
        }
      ],
      "name": "transferFrom",
      "outputs": [],
      "stateMutability": "nonpayable",
      "type": "function"
    },
    {
      "inputs": [
        {
          "internalType": "address",
          "name": "newOwner",
          "type": "address"
        }
      ],
      "name": "transferOwnership",
      "outputs": [],
      "stateMutability": "nonpayable",
      "type": "function"
    }
  ],
  "bytecode": "0x60806040526000600d553480156200001657600080fd5b50604051620034503803806200345083398181016040528101906200003c91906200028d565b806040518060400160405280600981526020017f59616c6c61566f746500000000000000000000000000000000000000000000008152506040518060400160405280600281526020017f59560000000000000000000000000000000000000000000000000000000000008152508160009081620000ba919062000539565b508060019081620000cc919062000539565b505050600073ffffffffffffffffffffffffffffffffffffffff168173ffffffffffffffffffffffffffffffffffffffff1603620001445760006040517f1e4fbdf70000000000000000000000000000000000000000000000000000000081526004016200013b919062000631565b60405180910390fd5b62000155816200015d60201b60201c565b50506200064e565b6000600b60009054906101000a900473ffffffffffffffffffffffffffffffffffffffff16905081600b60006101000a81548173ffffffffffffffffffffffffffffffffffffffff021916908373ffffffffffffffffffffffffffffffffffffffff1602179055508173ffffffffffffffffffffffffffffffffffffffff168173ffffffffffffffffffffffffffffffffffffffff167f8be0079c531659141344cd1fd0a4f28419497f9722a3daafe3b4186f6b6457e060405160405180910390a35050565b600080fd5b600073ffffffffffffffffffffffffffffffffffffffff82169050919050565b6000620002558262000228565b9050919050565b620002678162000248565b81146200027357600080fd5b50565b60008151905062000287816200025c565b92915050565b600060208284031215620002a657620002a562000223565b5b6000620002b68482850162000276565b91505092915050565b600081519050919050565b7f4e487b7100000000000000000000000000000000000000000000000000000000600052604160045260246000fd5b7f4e487b7100000000000000000000000000000000000000000000000000000000600052602260045260246000fd5b600060028204905060018216806200034157607f821691505b602082108103620003575762000356620002f9565b5b50919050565b60008190508160005260206000209050919050565b60006020601f8301049050919050565b600082821b905092915050565b600060088302620003c17fffffffffffffffffffffffffffffffffffffffffffffffffffffffffffffffff8262000382565b620003cd868362000382565b95508019841693508086168417925050509392505050565b6000819050919050565b6000819050919050565b60006200041a620004146200040e84620003e5565b620003ef565b620003e5565b9050919050565b6000819050919050565b6200043683620003f9565b6200044e620004458262000421565b8484546200038f565b825550505050565b600090565b6200046562000456565b620004728184846200042b565b505050565b5b818110156200049a576200048e6000826200045b565b60018101905062000478565b5050565b601f821115620004e957620004b3816200035d565b620004be8462000372565b81016020851015620004ce578190505b620004e6620004dd8562000372565b83018262000477565b50505b505050565b600082821c905092915050565b60006200050e60001984600802620004ee565b1980831691505092915050565b6000620005298383620004fb565b9150826002028217905092915050565b6200054482620002bf565b67ffffffffffffffff81111562000560576200055f620002ca565b5b6200056c825462000328565b620005798282856200049e565b600060209050601f831160018114620005b157600084156200059c578287015190505b620005a885826200051b565b86555062000618565b601f198416620005c1866200035d565b60005b82811015620005eb57848901518255600182019150602085019450602081019050620005c4565b868310156200060b578489015162000607601f891682620004fb565b8355505b6001600288020188555050505b505050505050565b6200062b8162000248565b82525050565b600060208201905062000648600083018462000620565b92915050565b612df2806200065e6000396000f3fe608060405234801561001057600080fd5b50600436106101375760003560e01c806370a08231116100b8578063b88d4fde1161007c578063b88d4fde1461034e578063c002d23d1461036a578063c87b56dd14610388578063d0def521146103b8578063e985e9c5146103d4578063f2fde38b1461040457610137565b806370a08231146102bc578063715018a6146102ec5780638da5cb5b146102f657806395d89b4114610314578063a22cb4651461033257610137565b806323b872dd116100ff57806323b872dd146101f45780632f745c591461021057806342842e0e146102405780634f6ccce71461025c5780636352211e1461028c57610137565b806301ffc9a71461013c57806306fdde031461016c578063081812fc1461018a578063095ea7b3146101ba57806318160ddd146101d6575b600080fd5b61015660048036038101906101519190612182565b610420565b60405161016391906121ca565b60405180910390f35b610174610432565b6040516101819190612275565b60405180910390f35b6101a4600480360381019061019f91906122cd565b6104c4565b6040516101b1919061233b565b60405180910390f35b6101d460048036038101906101cf9190612382565b6104e0565b005b6101de6104f6565b6040516101eb91906123d1565b60405180910390f35b61020e600480360381019061020991906123ec565b610503565b005b61022a60048036038101906102259190612382565b610605565b60405161023791906123d1565b60405180910390f35b61025a600480360381019061025591906123ec565b6106ae565b005b610276600480360381019061027191906122cd565b6106ce565b60405161028391906123d1565b60405180910390f35b6102a660048036038101906102a191906122cd565b610744565b6040516102b3919061233b565b60405180910390f35b6102d660048036038101906102d1919061243f565b610756565b6040516102e391906123d1565b60405180910390f35b6102f4610810565b005b6102fe610824565b60405161030b919061233b565b60405180910390f35b61031c61084e565b6040516103299190612275565b60405180910390f35b61034c60048036038101906103479190612498565b6108e0565b005b6103686004803603810190610363919061260d565b6108f6565b005b610372610913565b60405161037f91906123d1565b60405180910390f35b6103a2600480360381019061039d91906122cd565b610919565b6040516103af9190612275565b60405180910390f35b6103d260048036038101906103cd9190612731565b61092b565b005b6103ee60048036038101906103e9919061278d565b61095d565b6040516103fb91906121ca565b60405180910390f35b61041e6004803603810190610419919061243f565b6109f1565b005b600061042b82610a77565b9050919050565b606060008054610441906127fc565b80601f016020809104026020016040519081016040528092919081815260200182805461046d906127fc565b80156104ba5780601f1061048f576101008083540402835291602001916104ba565b820191906000526020600020905b81548152906001019060200180831161049d57829003601f168201915b5050505050905090565b60006104cf82610ad8565b506104d982610b60565b9050919050565b6104f282826104ed610b9d565b610ba5565b5050565b6000600880549050905090565b600073ffffffffffffffffffffffffffffffffffffffff168273ffffffffffffffffffffffffffffffffffffffff16036105755760006040517f64a0ae9200000000000000000000000000000000000000000000000000000000815260040161056c919061233b565b60405180910390fd5b60006105898383610584610b9d565b610bb7565b90508373ffffffffffffffffffffffffffffffffffffffff168173ffffffffffffffffffffffffffffffffffffffff16146105ff578382826040517f64283d7b0000000000000000000000000000000000000000000000000000000081526004016105f69392919061282d565b60405180910390fd5b50505050565b600061061083610756565b82106106555782826040517fa57d13dc00000000000000000000000000000000000000000000000000000000815260040161064c929190612864565b60405180910390fd5b600660008473ffffffffffffffffffffffffffffffffffffffff1673ffffffffffffffffffffffffffffffffffffffff168152602001908152602001600020600083815260200190815260200160002054905092915050565b6106c9838383604051806020016040528060008152506108f6565b505050565b60006106d86104f6565b821061071e576000826040517fa57d13dc000000000000000000000000000000000000000000000000000000008152600401610715929190612864565b60405180910390fd5b600882815481106107325761073161288d565b5b90600052602060002001549050919050565b600061074f82610ad8565b9050919050565b60008073ffffffffffffffffffffffffffffffffffffffff168273ffffffffffffffffffffffffffffffffffffffff16036107c95760006040517f89c62b640000000000000000000000000000000000000000000000000000000081526004016107c0919061233b565b60405180910390fd5b600360008373ffffffffffffffffffffffffffffffffffffffff1673ffffffffffffffffffffffffffffffffffffffff168152602001908152602001600020549050919050565b610818610bcd565b6108226000610c54565b565b6000600b60009054906101000a900473ffffffffffffffffffffffffffffffffffffffff16905090565b60606001805461085d906127fc565b80601f0160208091040260200160405190810160405280929190818152602001828054610889906127fc565b80156108d65780601f106108ab576101008083540402835291602001916108d6565b820191906000526020600020905b8154815290600101906020018083116108b957829003601f168201915b5050505050905090565b6108f26108eb610b9d565b8383610d1a565b5050565b610901848484610503565b61090d84848484610e89565b50505050565b600d5481565b606061092482611040565b9050919050565b6000600c6000815461093c906128eb565b919050819055905061094e8382611153565b6109588183611171565b505050565b6000600560008473ffffffffffffffffffffffffffffffffffffffff1673ffffffffffffffffffffffffffffffffffffffff16815260200190815260200160002060008373ffffffffffffffffffffffffffffffffffffffff1673ffffffffffffffffffffffffffffffffffffffff16815260200190815260200160002060009054906101000a900460ff16905092915050565b6109f9610bcd565b600073ffffffffffffffffffffffffffffffffffffffff168173ffffffffffffffffffffffffffffffffffffffff1603610a6b5760006040517f1e4fbdf7000000000000000000000000000000000000000000000000000000008152600401610a62919061233b565b60405180910390fd5b610a7481610c54565b50565b6000634906490660e01b7bffffffffffffffffffffffffffffffffffffffffffffffffffffffff1916827bffffffffffffffffffffffffffffffffffffffffffffffffffffffff19161480610ad15750610ad0826111cd565b5b9050919050565b600080610ae483611247565b9050600073ffffffffffffffffffffffffffffffffffffffff168173ffffffffffffffffffffffffffffffffffffffff1603610b5757826040517f7e273289000000000000000000000000000000000000000000000000000000008152600401610b4e91906123d1565b60405180910390fd5b80915050919050565b60006004600083815260200190815260200160002060009054906101000a900473ffffffffffffffffffffffffffffffffffffffff169050919050565b600033905090565b610bb28383836001611284565b505050565b6000610bc4848484611449565b90509392505050565b610bd5610b9d565b73ffffffffffffffffffffffffffffffffffffffff16610bf3610824565b73ffffffffffffffffffffffffffffffffffffffff1614610c5257610c16610b9d565b6040517f118cdaa7000000000000000000000000000000000000000000000000000000008152600401610c49919061233b565b60405180910390fd5b565b6000600b60009054906101000a900473ffffffffffffffffffffffffffffffffffffffff16905081600b60006101000a81548173ffffffffffffffffffffffffffffffffffffffff021916908373ffffffffffffffffffffffffffffffffffffffff1602179055508173ffffffffffffffffffffffffffffffffffffffff168173ffffffffffffffffffffffffffffffffffffffff167f8be0079c531659141344cd1fd0a4f28419497f9722a3daafe3b4186f6b6457e060405160405180910390a35050565b600073ffffffffffffffffffffffffffffffffffffffff168273ffffffffffffffffffffffffffffffffffffffff1603610d8b57816040517f5b08ba18000000000000000000000000000000000000000000000000000000008152600401610d82919061233b565b60405180910390fd5b80600560008573ffffffffffffffffffffffffffffffffffffffff1673ffffffffffffffffffffffffffffffffffffffff16815260200190815260200160002060008473ffffffffffffffffffffffffffffffffffffffff1673ffffffffffffffffffffffffffffffffffffffff16815260200190815260200160002060006101000a81548160ff0219169083151502179055508173ffffffffffffffffffffffffffffffffffffffff168373ffffffffffffffffffffffffffffffffffffffff167f17307eab39ab6107e8899845ad3d59bd9653f200f220920489ca2b5937696c3183604051610e7c91906121ca565b60405180910390a3505050565b60008373ffffffffffffffffffffffffffffffffffffffff163b111561103a578273ffffffffffffffffffffffffffffffffffffffff1663150b7a02610ecd610b9d565b8685856040518563ffffffff1660e01b8152600401610eef9493929190612988565b6020604051808303816000875af1925050508015610f2b57506040513d601f19601f82011682018060405250810190610f2891906129e9565b60015b610faf573d8060008114610f5b576040519150601f19603f3d011682016040523d82523d6000602084013e610f60565b606091505b506000815103610fa757836040517f64a0ae92000000000000000000000000000000000000000000000000000000008152600401610f9e919061233b565b60405180910390fd5b805181602001fd5b63150b7a0260e01b7bffffffffffffffffffffffffffffffffffffffffffffffffffffffff1916817bffffffffffffffffffffffffffffffffffffffffffffffffffffffff19161461103857836040517f64a0ae9200000000000000000000000000000000000000000000000000000000815260040161102f919061233b565b60405180910390fd5b505b50505050565b606061104b82610ad8565b506000600a6000848152602001908152602001600020805461106c906127fc565b80601f0160208091040260200160405190810160405280929190818152602001828054611098906127fc565b80156110e55780601f106110ba576101008083540402835291602001916110e5565b820191906000526020600020905b8154815290600101906020018083116110c857829003601f168201915b5050505050905060006110f6611566565b9050600081510361110b57819250505061114e565b600082511115611140578082604051602001611128929190612a52565b6040516020818303038152906040529250505061114e565b61114984611586565b925050505b919050565b61116d8282604051806020016040528060008152506115ef565b5050565b80600a600084815260200190815260200160002090816111919190612c22565b507ff8e1a15aba9398e019f0b49df1a4fde98ee17ae345cb5f6b5e2c27f5033e8ce7826040516111c191906123d1565b60405180910390a15050565b60007f780e9d63000000000000000000000000000000000000000000000000000000007bffffffffffffffffffffffffffffffffffffffffffffffffffffffff1916827bffffffffffffffffffffffffffffffffffffffffffffffffffffffff19161480611240575061123f8261160b565b5b9050919050565b60006002600083815260200190815260200160002060009054906101000a900473ffffffffffffffffffffffffffffffffffffffff169050919050565b80806112bd5750600073ffffffffffffffffffffffffffffffffffffffff168273ffffffffffffffffffffffffffffffffffffffff1614155b156113f15760006112cd84610ad8565b9050600073ffffffffffffffffffffffffffffffffffffffff168373ffffffffffffffffffffffffffffffffffffffff161415801561133857508273ffffffffffffffffffffffffffffffffffffffff168173ffffffffffffffffffffffffffffffffffffffff1614155b801561134b5750611349818461095d565b155b1561138d57826040517fa9fbf51f000000000000000000000000000000000000000000000000000000008152600401611384919061233b565b60405180910390fd5b81156113ef57838573ffffffffffffffffffffffffffffffffffffffff168273ffffffffffffffffffffffffffffffffffffffff167f8c5be1e5ebec7d5bd14f71427d1e84f3dd0314c0f7b2291e5b200ac8c7c3b92560405160405180910390a45b505b836004600085815260200190815260200160002060006101000a81548173ffffffffffffffffffffffffffffffffffffffff021916908373ffffffffffffffffffffffffffffffffffffffff16021790555050505050565b6000806114578585856116ed565b9050600073ffffffffffffffffffffffffffffffffffffffff168173ffffffffffffffffffffffffffffffffffffffff160361149b5761149684611907565b6114da565b8473ffffffffffffffffffffffffffffffffffffffff168173ffffffffffffffffffffffffffffffffffffffff16146114d9576114d88185611950565b5b5b600073ffffffffffffffffffffffffffffffffffffffff168573ffffffffffffffffffffffffffffffffffffffff160361151c5761151784611ab1565b61155b565b8473ffffffffffffffffffffffffffffffffffffffff168173ffffffffffffffffffffffffffffffffffffffff161461155a576115598585611b82565b5b5b809150509392505050565b6060604051806060016040528060368152602001612d8760369139905090565b606061159182610ad8565b50600061159c611566565b905060008151116115bc57604051806020016040528060008152506115e7565b806115c684611c0d565b6040516020016115d7929190612a52565b6040516020818303038152906040525b915050919050565b6115f98383611cdb565b6116066000848484610e89565b505050565b60007f80ac58cd000000000000000000000000000000000000000000000000000000007bffffffffffffffffffffffffffffffffffffffffffffffffffffffff1916827bffffffffffffffffffffffffffffffffffffffffffffffffffffffff191614806116d657507f5b5e139f000000000000000000000000000000000000000000000000000000007bffffffffffffffffffffffffffffffffffffffffffffffffffffffff1916827bffffffffffffffffffffffffffffffffffffffffffffffffffffffff1916145b806116e657506116e582611dd4565b5b9050919050565b6000806116f984611247565b9050600073ffffffffffffffffffffffffffffffffffffffff168373ffffffffffffffffffffffffffffffffffffffff161461173b5761173a818486611e3e565b5b600073ffffffffffffffffffffffffffffffffffffffff168173ffffffffffffffffffffffffffffffffffffffff16146117cc5761177d600085600080611284565b6001600360008373ffffffffffffffffffffffffffffffffffffffff1673ffffffffffffffffffffffffffffffffffffffff168152602001908152602001600020600082825403925050819055505b600073ffffffffffffffffffffffffffffffffffffffff168573ffffffffffffffffffffffffffffffffffffffff161461184f576001600360008773ffffffffffffffffffffffffffffffffffffffff1673ffffffffffffffffffffffffffffffffffffffff168152602001908152602001600020600082825401925050819055505b846002600086815260200190815260200160002060006101000a81548173ffffffffffffffffffffffffffffffffffffffff021916908373ffffffffffffffffffffffffffffffffffffffff160217905550838573ffffffffffffffffffffffffffffffffffffffff168273ffffffffffffffffffffffffffffffffffffffff167fddf252ad1be2c89b69c2b068fc378daa952ba7f163c4a11628f55a4df523b3ef60405160405180910390a4809150509392505050565b6008805490506009600083815260200190815260200160002081905550600881908060018154018082558091505060019003906000526020600020016000909190919091505550565b600061195b83610756565b9050600060076000848152602001908152602001600020549050818114611a40576000600660008673ffffffffffffffffffffffffffffffffffffffff1673ffffffffffffffffffffffffffffffffffffffff168152602001908152602001600020600084815260200190815260200160002054905080600660008773ffffffffffffffffffffffffffffffffffffffff1673ffffffffffffffffffffffffffffffffffffffff168152602001908152602001600020600084815260200190815260200160002081905550816007600083815260200190815260200160002081905550505b6007600084815260200190815260200160002060009055600660008573ffffffffffffffffffffffffffffffffffffffff1673ffffffffffffffffffffffffffffffffffffffff16815260200190815260200160002060008381526020019081526020016000206000905550505050565b60006001600880549050611ac59190612cf4565b9050600060096000848152602001908152602001600020549050600060088381548110611af557611af461288d565b5b906000526020600020015490508060088381548110611b1757611b1661288d565b5b906000526020600020018190555081600960008381526020019081526020016000208190555060096000858152602001908152602001600020600090556008805480611b6657611b65612d28565b5b6001900381819060005260206000200160009055905550505050565b60006001611b8f84610756565b611b999190612cf4565b905081600660008573ffffffffffffffffffffffffffffffffffffffff1673ffffffffffffffffffffffffffffffffffffffff168152602001908152602001600020600083815260200190815260200160002081905550806007600084815260200190815260200160002081905550505050565b606060006001611c1c84611f02565b01905060008167ffffffffffffffff811115611c3b57611c3a6124e2565b5b6040519080825280601f01601f191660200182016040528015611c6d5781602001600182028036833780820191505090505b509050600082602001820190505b600115611cd0578080600190039150507f3031323334353637383961626364656600000000000000000000000000000000600a86061a8153600a8581611cc457611cc3612d57565b5b04945060008503611c7b575b819350505050919050565b600073ffffffffffffffffffffffffffffffffffffffff168273ffffffffffffffffffffffffffffffffffffffff1603611d4d5760006040517f64a0ae92000000000000000000000000000000000000000000000000000000008152600401611d44919061233b565b60405180910390fd5b6000611d5b83836000610bb7565b9050600073ffffffffffffffffffffffffffffffffffffffff168173ffffffffffffffffffffffffffffffffffffffff1614611dcf5760006040517f73c6ac6e000000000000000000000000000000000000000000000000000000008152600401611dc6919061233b565b60405180910390fd5b505050565b60007f01ffc9a7000000000000000000000000000000000000000000000000000000007bffffffffffffffffffffffffffffffffffffffffffffffffffffffff1916827bffffffffffffffffffffffffffffffffffffffffffffffffffffffff1916149050919050565b611e49838383612055565b611efd57600073ffffffffffffffffffffffffffffffffffffffff168373ffffffffffffffffffffffffffffffffffffffff1603611ebe57806040517f7e273289000000000000000000000000000000000000000000000000000000008152600401611eb591906123d1565b60405180910390fd5b81816040517f177e802f000000000000000000000000000000000000000000000000000000008152600401611ef4929190612864565b60405180910390fd5b505050565b600080600090507a184f03e93ff9f4daa797ed6e38ed64bf6a1f0100000000000000008310611f60577a184f03e93ff9f4daa797ed6e38ed64bf6a1f0100000000000000008381611f5657611f55612d57565b5b0492506040810190505b6d04ee2d6d415b85acef81000000008310611f9d576d04ee2d6d415b85acef81000000008381611f9357611f92612d57565b5b0492506020810190505b662386f26fc100008310611fcc57662386f26fc100008381611fc257611fc1612d57565b5b0492506010810190505b6305f5e1008310611ff5576305f5e1008381611feb57611fea612d57565b5b0492506008810190505b612710831061201a5761271083816120105761200f612d57565b5b0492506004810190505b6064831061203d576064838161203357612032612d57565b5b0492506002810190505b600a831061204c576001810190505b80915050919050565b60008073ffffffffffffffffffffffffffffffffffffffff168373ffffffffffffffffffffffffffffffffffffffff161415801561210d57508273ffffffffffffffffffffffffffffffffffffffff168473ffffffffffffffffffffffffffffffffffffffff1614806120ce57506120cd848461095d565b5b8061210c57508273ffffffffffffffffffffffffffffffffffffffff166120f483610b60565b73ffffffffffffffffffffffffffffffffffffffff16145b5b90509392505050565b6000604051905090565b600080fd5b600080fd5b60007fffffffff0000000000000000000000000000000000000000000000000000000082169050919050565b61215f8161212a565b811461216a57600080fd5b50565b60008135905061217c81612156565b92915050565b60006020828403121561219857612197612120565b5b60006121a68482850161216d565b91505092915050565b60008115159050919050565b6121c4816121af565b82525050565b60006020820190506121df60008301846121bb565b92915050565b600081519050919050565b600082825260208201905092915050565b60005b8381101561221f578082015181840152602081019050612204565b60008484015250505050565b6000601f19601f8301169050919050565b6000612247826121e5565b61225181856121f0565b9350612261818560208601612201565b61226a8161222b565b840191505092915050565b6000602082019050818103600083015261228f818461223c565b905092915050565b6000819050919050565b6122aa81612297565b81146122b557600080fd5b50565b6000813590506122c7816122a1565b92915050565b6000602082840312156122e3576122e2612120565b5b60006122f1848285016122b8565b91505092915050565b600073ffffffffffffffffffffffffffffffffffffffff82169050919050565b6000612325826122fa565b9050919050565b6123358161231a565b82525050565b6000602082019050612350600083018461232c565b92915050565b61235f8161231a565b811461236a57600080fd5b50565b60008135905061237c81612356565b92915050565b6000806040838503121561239957612398612120565b5b60006123a78582860161236d565b92505060206123b8858286016122b8565b9150509250929050565b6123cb81612297565b82525050565b60006020820190506123e660008301846123c2565b92915050565b60008060006060848603121561240557612404612120565b5b60006124138682870161236d565b93505060206124248682870161236d565b9250506040612435868287016122b8565b9150509250925092565b60006020828403121561245557612454612120565b5b60006124638482850161236d565b91505092915050565b612475816121af565b811461248057600080fd5b50565b6000813590506124928161246c565b92915050565b600080604083850312156124af576124ae612120565b5b60006124bd8582860161236d565b92505060206124ce85828601612483565b9150509250929050565b600080fd5b600080fd5b7f4e487b7100000000000000000000000000000000000000000000000000000000600052604160045260246000fd5b61251a8261222b565b810181811067ffffffffffffffff82111715612539576125386124e2565b5b80604052505050565b600061254c612116565b90506125588282612511565b919050565b600067ffffffffffffffff821115612578576125776124e2565b5b6125818261222b565b9050602081019050919050565b82818337600083830152505050565b60006125b06125ab8461255d565b612542565b9050828152602081018484840111156125cc576125cb6124dd565b5b6125d784828561258e565b509392505050565b600082601f8301126125f4576125f36124d8565b5b813561260484826020860161259d565b91505092915050565b6000806000806080858703121561262757612626612120565b5b60006126358782880161236d565b94505060206126468782880161236d565b9350506040612657878288016122b8565b925050606085013567ffffffffffffffff81111561267857612677612125565b5b612684878288016125df565b91505092959194509250565b600067ffffffffffffffff8211156126ab576126aa6124e2565b5b6126b48261222b565b9050602081019050919050565b60006126d46126cf84612690565b612542565b9050828152602081018484840111156126f0576126ef6124dd565b5b6126fb84828561258e565b509392505050565b600082601f830112612718576127176124d8565b5b81356127288482602086016126c1565b91505092915050565b6000806040838503121561274857612747612120565b5b60006127568582860161236d565b925050602083013567ffffffffffffffff81111561277757612776612125565b5b61278385828601612703565b9150509250929050565b600080604083850312156127a4576127a3612120565b5b60006127b28582860161236d565b92505060206127c38582860161236d565b9150509250929050565b7f4e487b7100000000000000000000000000000000000000000000000000000000600052602260045260246000fd5b6000600282049050600182168061281457607f821691505b602082108103612827576128266127cd565b5b50919050565b6000606082019050612842600083018661232c565b61284f60208301856123c2565b61285c604083018461232c565b949350505050565b6000604082019050612879600083018561232c565b61288660208301846123c2565b9392505050565b7f4e487b7100000000000000000000000000000000000000000000000000000000600052603260045260246000fd5b7f4e487b7100000000000000000000000000000000000000000000000000000000600052601160045260246000fd5b60006128f682612297565b91507fffffffffffffffffffffffffffffffffffffffffffffffffffffffffffffffff8203612928576129276128bc565b5b600182019050919050565b600081519050919050565b600082825260208201905092915050565b600061295a82612933565b612964818561293e565b9350612974818560208601612201565b61297d8161222b565b840191505092915050565b600060808201905061299d600083018761232c565b6129aa602083018661232c565b6129b760408301856123c2565b81810360608301526129c9818461294f565b905095945050505050565b6000815190506129e381612156565b92915050565b6000602082840312156129ff576129fe612120565b5b6000612a0d848285016129d4565b91505092915050565b600081905092915050565b6000612a2c826121e5565b612a368185612a16565b9350612a46818560208601612201565b80840191505092915050565b6000612a5e8285612a21565b9150612a6a8284612a21565b91508190509392505050565b60008190508160005260206000209050919050565b60006020601f8301049050919050565b600082821b905092915050565b600060088302612ad87fffffffffffffffffffffffffffffffffffffffffffffffffffffffffffffffff82612a9b565b612ae28683612a9b565b95508019841693508086168417925050509392505050565b6000819050919050565b6000612b1f612b1a612b1584612297565b612afa565b612297565b9050919050565b6000819050919050565b612b3983612b04565b612b4d612b4582612b26565b848454612aa8565b825550505050565b600090565b612b62612b55565b612b6d818484612b30565b505050565b5b81811015612b9157612b86600082612b5a565b600181019050612b73565b5050565b601f821115612bd657612ba781612a76565b612bb084612a8b565b81016020851015612bbf578190505b612bd3612bcb85612a8b565b830182612b72565b50505b505050565b600082821c905092915050565b6000612bf960001984600802612bdb565b1980831691505092915050565b6000612c128383612be8565b9150826002028217905092915050565b612c2b826121e5565b67ffffffffffffffff811115612c4457612c436124e2565b5b612c4e82546127fc565b612c59828285612b95565b600060209050601f831160018114612c8c5760008415612c7a578287015190505b612c848582612c06565b865550612cec565b601f198416612c9a86612a76565b60005b82811015612cc257848901518255600182019150602085019450602081019050612c9d565b86831015612cdf5784890151612cdb601f891682612be8565b8355505b6001600288020188555050505b505050505050565b6000612cff82612297565b9150612d0a83612297565b9250828203905081811115612d2257612d216128bc565b5b92915050565b7f4e487b7100000000000000000000000000000000000000000000000000000000600052603160045260246000fd5b7f4e487b7100000000000000000000000000000000000000000000000000000000600052601260045260246000fdfe697066733a2f2f516d5a46395634437950734b58465171563334703178557371665961634a696f4d355a4a415870567735696f41662fa26469706673582212206e00d08e6cd27724c943d292db3023358f032ec34beba3fb60c83fcfd14d1f2464736f6c63430008180033",
  "linkReferences": {},
  "deployedLinkReferences": {}
}